:020000040800F2
:10000000E8110020A1010008F90900089109000881
:10001000F509000817090008890C00080000000015
:10002000000000000000000000000000FD090008C2
:100030001B09000800000000FB090008E90A00088D
:10004000BB010008BB010008BB010008BB010008A0
:10005000BB010008BB010008BB010008BB01000890
:10006000BB010008BB0100081D090008BB01000816
:10007000BB010008BB010008BB010008BB01000870
:10008000BB010008BB010008BB010008BB01000860
:10009000BB010008BB010008BB010008BB01000850
:1000A000BB010008BB010008BB010008BB01000840
:1000B0004D0B00086D0B0008B10B0008BB010008D8
:1000C000BB010008BB010008BB010008BB01000820
:1000D000BB010008F10B0008BB010008BB010008D0
:1000E000BB010008BB010008BB01000800F002F8DA
:1000F00000F046F80AA090E8000C82448344AAF17C
:100100000107DA4501D100F03BF8AFF2090EBAE879
:100110000F0013F0010F18BFFB1A43F0010318473B
:100120007830000098300000103A24BF78C878C1B9
:10013000FAD8520724BF30C830C144BF04680C60ED
:10014000704700000023002400250026103A28BF35
:1001500078C1FBD8520728BF30C148BF0B60704739
:10016000642900F0DF80732900F0F98200207047D5
:100170001FB59DE8030000F033FA1FBD10B510BD98
:1001800000F055FB1146FFF7F3FF01F053FB00F0C1
:1001900073FB03B4FFF7F2FF03BC00F07EFD000029
:1001A0000948804709480047FEE7FEE7FEE7FEE70B
:1001B000FEE7FEE7FEE7FEE7FEE7FEE70448054947
:1001C000054A064B70470000ED0A0008ED000008E4
:1001D000E8070020E8110020E80D0020E80D0020CD
:1001E000704770B5064600F0DFF9056806F10B00B0
:1001F00020F00704B4429CBF002070BD2B466A6803
:10020000BAB11068A04210D304F1080188423CBF83
:100210005068586007D35168101941601168091B74
:10022000016058601460101D70BD13465268002AAA
:10023000E7D12146284600F0BFF90028DED170BD85
:1002400070B50446051F00F0AFF90068002C14BF1C
:10025000446870BD002C18BFAC423CBF20466468A7
:10026000F8D301680A18AA4218BF456003D12A686A
:1002700005461144016028684119A1421CBF6C6009
:1002800070BD6168696021680844286070BD000025
:100290000FB4044910B503AA029800F065FA10BC27
:1002A0005DF814FB480000200FB41CB5074B06AAEC
:1002B0007B4469460090059800F027FA00206946C3
:1002C00000F036FA1CBC5DF814FB00007D04000051
:1002D00070B50C460546012A05D02878800600D561
:1002E000EA69002302E0012305E05B1C934202D28D
:1002F000E05C0028F9D1A869E618C01AA861286A4C
:10030000184428622846AFF3008004E0D5E90121B3
:1003100014F8010B9047B442F8D32846AFF300809D
:1003200070BD00002DE9F0410646002410687529D3
:10033000314616A510D0AFF30080002802DA404203
:1003400013A507E031688A0701D512A502E0490725
:1003500004D511A5012401E0AFF3008000210A2299
:1003600006F1240709E0B0FBF2FCB0FBF2F302FB5C
:100370001C00303078541846491C0028F3D123461D
:100380002A463046BDE8F04100F060B900000000A8
:100390002D0000002B000000200000002DE9F05F80
:1003A000894604464FF0000ADFF824B1FB44C0F848
:1003B00020A02046E168884700287DD0252806D067
:1003C000D4E901219047206A401C2062F1E7002512
:1003D0005F462046E16888472028064607DB312E25
:1003E00005D2B81910F8200C08B10543F1E7A807A9
:1003F00001D525F00405C4F81CA00027C4F818A0F6
:100400002A2E09D0304600F041FC38B304EB8708AF
:10041000303EC8F8186019E059F8041B204604EB78
:1004200087029161E1688847012F064618D1E0698B
:10043000002820DA25F020051DE0D8F8180000EB90
:10044000800006EB40003038C8F818002046E1680C
:100450008847064600F01AFC0028EED1012F0AD08A
:100460002E2E08D12046E16888477F1C0646022FC1
:1004700045F02005C4DBA069002803DA404245F0BE
:100480000105A061E80701D025F01005A6B1A6F18D
:100490004100192802D8203645F400654A46314605
:1004A000204625604D46FFF75BFE60B1012807D06E
:1004B000ED1D25F0070000E007E000F1080978E7EE
:1004C00005F1040975E730467AE7206ABDE8F09F38
:1004D000D62D000040EA0103024630B59B0710D13B
:1004E0004FF0013400E008C208C91D1B9D4315EA06
:1004F000C41FF8D013F0FF0102F8011B0DD01B0A36
:10050000F8E711F8013B002B02F8013B05D011F888
:10051000013B002B02F8013BF3D130BD10B5431C69
:1005200002E010F8011B71B18107FAD14FF00132DE
:1005300002C88C1A8C4314EAC211F9D0C01A0A06F8
:1005400003D0C01E10BDC01A10BD0A0401D0801E09
:1005500010BD0902FCD0401E10BD4FF0000204295E
:10056000C0F0128010F0030C00F01281CCF1040CEA
:10057000BCF1020F18BF00F8012BA8BF20F8022B16
:10058000A1EB0C0100F004B95FEAC17C24BF00F8C4
:10059000012B00F8012B48BF00F8012B7047704772
:1005A0007047704770470000004870478C07002074
:1005B000704770477047704738B504460A460020B8
:1005C0006946AFF30080002808BF38BD0246009995
:1005D000204600F007F9012038BD012000F020B9C5
:1005E000F8B5AFF30080054600200C46102000BF90
:1005F0000646A819A0420DD9324669460020AFF33D
:100600000080070008BF00F00BF90098A04218BF57
:100610000546C419FFF7C8FF05600746F01D20F026
:1006200007004619284600F00AF8B44208BFF8BD92
:10063000A21B31463868BDE8F84000F0D3B800216D
:100640000160C0E901107047102070472DE9F047A4
:100650000D4699469246044600F124080168880632
:1006600004D5E06921F01001216000E00120A842DA
:1006700001DD471B00E00027A1697A1902EB0900A0
:10068000081AA0612078C00602D42046AFF300808B
:10069000002608E0D4E901211AF806009047206AF4
:1006A000401C761C20624E45F4DB2078C0060AD53B
:1006B0002046AFF3008006E0D4E9012130209047C6
:1006C000206A401C2062381EA7F10107F4DC07E015
:1006D000D4E9012118F805009047206A401C2062E7
:1006E000281EA5F10105F3DC2046AFF30080207839
:1006F000000602D50220BDE8F0870120FBE70000DC
:1007000001694A1C02610878704700B58FB0CDE9D5
:1007100001310021059105497944CDE903101146C5
:100720006846FFF73BFE0FB000BD0000E5FFFFFF8E
:100730000A6802F8010B0A60704710B5436913B1EB
:10074000AFF3008001E0FFF7C3FD012010BD127878
:1007500000F124010A7000224A700122EDE71168BD
:100760004FF0FF32E9E70000074B70B50D467B44C0
:10077000FFF7CBFF0446284600F04EF810B14FF0CB
:10078000FF3070BD204670BD8B0C00004FF00002A2
:1007900000B5134694469646203922BFA0E80C5077
:1007A000A0E80C50B1F12001BFF4F7AF090728BF52
:1007B000A0E80C5048BF0CC05DF804EB890028BFCE
:1007C00040F8042B08BF704748BF20F8022B11F0F7
:1007D000804F18BF00F8012B704700000048704799
:1007E00084070020034640688C46002818BF8842D2
:1007F0003CBF03464068F8D318681844884207D0C5
:100800000CF1030020F00700001D411A521A0146A6
:10081000081D0A60FFF714BD007B00F080007047E0
:1008200010B500F037F8BDE8104000F02EB875465E
:10083000FFF7D4FFAE4605006946534620F0070097
:10084000854618B020B5FFF7B9FCBDE820404FF051
:1008500000064FF000074FF000084FF0000B21F0AA
:100860000701AC46ACE8C009ACE8C009ACE8C00977
:10087000ACE8C0098D46704710B50446AFF3008060
:100880002046BDE81040FFF784BC002801D000F0EE
:1008900004BA704710B5012805D0002103A000F06C
:1008A00021F8012010BD09A1F8E700005349475283
:1008B000544D454D3A204F7574206F662068656130
:1008C00070206D656D6F7279000000003A204865F8
:1008D0006170206D656D6F727920636F72727570D3
:1008E0007465640070B505460C460A2000E06D1C76
:1008F00000F0D6F935B128780028F8D102E0641C60
:1009000000F0CEF914B120780028F8D1BDE870408D
:100910000A2000F0C5B900BFFEE7704710B51020EF
:1009200000F022F890B10024094801F0C9FB044608
:1009300004F0010010B1012006490870064904487E
:1009400001F0D2FB102000F009F800BF10BD00003C
:1009500000580040000000208C0000200149086081
:100960007047000014040140014600200022074B9C
:100970001B6803EA0102054B14331B680B4013B1DB
:100980000AB1012000E0002070470000000401408F
:1009900000BFFEE721B1028842F48062028004E0D9
:1009A00002884FF6FF331A400280704770B5024646
:1009B0000024002500230020958A138B1B0445EAA0
:1009C000030626F07F4404EA01068E4201D101208D
:1009D00000E0002070BD0146088AC0B2704712B125
:1009E00041F0010102E04FF6FE73194001827047A9
:1009F0000182704700BFFEE770477047704710B52F
:100A000000F002F810BD00000CB50020019000902D
:100A10003348006840F480303149086000BF3048F6
:100A2000006800F4003000900198401C019000988C
:100A300018B90198B0F5A06FF1D12948006800F409
:100A4000003010B10120009001E0002000900098DB
:100A5000012843D12348006840F010002149086074
:100A60000846006820F0070008600846006840F06B
:100A7000020008601A484068194948600846406802
:100A800048600846406840F4806048600846406816
:100A900020F47C1048600846406840F4E810486044
:100AA0000846006840F08070086000BF0C4800688D
:100AB00000F000700028F9D00948406820F00300D9
:100AC000074948600846406840F00200486000BF9F
:100AD0000348406800F00C000828F9D10CBD000064
:100AE00000100240002002407047000010B513487B
:100AF000006840F00100114908600846406810494C
:100B000008400E494860084600680E4908400B49F5
:100B100008600846006820F48020086008464068A5
:100B200020F4FE0048604FF41F008860FFF767FF65
:100B30004FF000600449086010BD00000010024042
:100B40000000FFF8FFFFF6FE08ED00E04FF08040E8
:100B5000008A00F0010038B14FF08040008A20F098
:100B600001004FF080410882704700000E48008865
:100B700000F00100B8B10C4910390988C1F3001028
:100B800028B10A494969491E084A516104E00749E8
:100B90004969491C054A51610349098821F001014D
:100BA000014A118000BF704710040040700000200F
:100BB00010B50A48008800F0010068B1084801F04B
:100BC0009FFD084801F09CFD00F0AAFF0348008843
:100BD00020F001000149088010BD0000100800400D
:100BE0004C000020580000200146888C704700000F
:100BF00010B500242148008800F0200080B11F4873
:100C0000001D0088C4B21E48008800F4804038B936
:100C10004FF480401A490880C8211A48FFF79DFC0C
:100C200017480088C0F30D0016490C54144800887A
:100C3000401C1349088008460088C0F30D00C828EE
:100C400001DB002008800D48008800F01000A0B1F2
:100C50000B48008840F40040094908800846008895
:100C600020F48040088000200988C1F30D01054A66
:100C700050540248001D0088C4B210BD0038014025
:100C8000020000202A02002000BFFEE730380A28B8
:100C900001D2012070470020704700BFFEE700002E
:100CA00000BF0549098801F040010029F9D0C1B20F
:100CB000014A121D118070470038014000B101B98E
:100CC0007047C86002690AB9016108E0026900E082
:100CD00052695369002BFBD151618A6100BF00BF8B
:100CE000EEE700002DE9F04105460E4617462C20A0
:100CF000FFF777FA04463CB9154A6D2115A0FFF7B6
:100D0000C7FA0020BDE8F0812846FFF707FC00F194
:100D100001084046FFF765FA2060206820B12946A7
:100D20002068FFF7D7FB04E02046FFF789FA002090
:100D3000E8E72671A76000202061E060A0616061A3
:100D4000E0612062642060620120A0622046D9E751
:100D5000FE2900085B4C4F475D5B25645D5B257396
:100D60005D6572723A6372656174655F6E6F64652A
:100D7000206661696C2121210D0A000070B50346CF
:100D80004FF47A70B3FBF0F4B3FBF0F100FB1135D4
:100D9000012C09D9002600BF03E0074800F00EF837
:100DA000761CA642F9D300BF2DB14FF47A7105FB32
:100DB00001F000F003F870BD40420F0000EBC001ED
:100DC0004FF0E0225161002191611146096941F023
:100DD0000101116100BF4FF0E021096901F4803188
:100DE0000029F8D04FF0E021096921F001014FF00E
:100DF000E0221161704700002A48806940F0080035
:100E0000284988610846C06940F40010C861084656
:100E1000806940F0010088612348006820F07F402D
:100E2000214908600846006840F07F4008601F487C
:100E3000008840F024001D490880081F008820F029
:100E40000100091F08800C2018491C310880081F68
:100E5000008840F40040091F08800846008820F4FC
:100E6000804008800846008840F01E0008800F4837
:100E7000001F008840F001000C49091F0880084647
:100E8000008840F48060088008140849091D088023
:100E90000648001F008840F001000449091F08802F
:100EA0007047000000100240000C01400454004054
:100EB0002A48806940F00800284988610846C069CE
:100EC00040F48000C8610846806940F001008861F4
:100ED0002348006820F47F402149086008460068E4
:100EE00040F47F4008601F48008840F024001D49FE
:100EF0000880081F008820F00100091F08800C20CE
:100F000018491C310880081F008840F40040091F60
:100F100008800846008820F4804008800846008841
:100F200040F01E0008800F48001F008840F00100BC
:100F30000C49091F08800846008840F4806008803A
:100F400008140849091D08800648001F008840F061
:100F500001000449091F088070470000001002408A
:100F6000040C0140045800402048806940F004000F
:100F70001E4988610846806940F0400088611C482D
:100F8000006820F00F001A4908600846006840F029
:100F9000080008601748006820F470401549086090
:100FA0000846006840F4004008600846006820F4E5
:100FB000702008600846006840F4002008600C4873
:100FC0000C30006820F0010009490C310860094824
:100FD0000C30006840F0080006490C3108600846F3
:100FE000006840F0100008607047000000100240E8
:100FF00000080140001801402E48806940F00800B8
:101000002C4988610846806940F0010088610846E3
:10101000C06940F48040C8612748006880B2264912
:1010200008600846006840F44030086008460068E0
:1010300040F4300008600846006840F00060086036
:101040000846006840F0304008601C48008820F0E6
:1010500038001A4908800846008820F002000880FD
:101060000846008820F0010008800846008820F427
:10107000006008800846008820F08000088008464C
:10108000008840F4007008800846008840F48070B2
:1010900008800846008820F4004008800846008840
:1010A00040F0040008800846008840F040000880B6
:1010B0007047000000100240040C0140003800405E
:1010C0004FF0E020006920F004004FF0E0210861BB
:1010D0007047000070B502460B464848C06940F0B2
:1010E00002004649C8610846806940F004008861F2
:1010F0004348006820F07F40414908600846006886
:1011000040F088400860581E3E490880501E091D66
:1011100008803D48008840F001003B4908800846AF
:10112000008840F4807008800846008820F00C0099
:1011300008800846008820F4406008803148203844
:10114000008840F003002F49203908802D480838D6
:10115000008820F001002B490839088008460088E3
:1011600020F02000088027481038008840F0300028
:101170002449103908800846008840F4405008800F
:1011800020481C38008840F001001E491C390880A6
:10119000052004461D4D29684FF6FF0529401C4DCA
:1011A0000D4345EA0421194D296000BF1D2001218E
:1011B00081404409A40004F1E024C4F8001100BFF8
:1011C0000A21002808DA0C07260E104C0C3400F017
:1011D0000F052D1F665503E00C07250E0D4C2554F9
:1011E00000BF00200749091F0880064828380088EA
:1011F00040F0010003492839088070BD001002400A
:101200000008014028040040182C01400CED00E0CB
:101210000000FA0500E400E070B502460B462548E0
:10122000C06940F004002349C861581E2249088063
:10123000501E091D088020481C38008840F001001D
:101240001D491C3908801C482838008840F080005F
:101250001949283908800846008840F001000880B4
:1012600005200446154D29684FF6FF052940144D09
:101270000D4345EA0421114D296000BF1E200121C4
:1012800081404409A40004F1E024C4F8001100BF27
:101290000A21002808DA0C07260E084C0C3400F04E
:1012A0000F052D1F665503E00C07250E054C255430
:1012B00000BF70BD00100240280800400CED00E0A7
:1012C0000000FA0500E400E0F0B50146444C04EBF0
:1012D0005100B0FBF1F34348806940F00400414AFB
:1012E00090611046806940F001009061104680696D
:1012F00040F4804090613C48006820F0F0003A4A99
:1013000010601046006840F0B000106010460068A1
:1013100020F4706010601046006840F48060106037
:101320001A09184662F31F10304A1080101D0088F9
:1013300020F48060121D10801046008820F4805038
:101340001080101D008820F40050121D1080101F06
:10135000008840F00800121F10801046008840F0FE
:10136000040010801046008840F4005010800520D2
:1013700005461F4E32684FF6FF0632401D4E16439B
:1013800046EA05221A4E326000BF252000F01F05F4
:101390000122AA404509AD0005F1E025C5F800216C
:1013A00000BF0A22002808DA15072F0E104D0C3551
:1013B00000F00F06361FAF5503E015072E0E0E4D39
:1013C0002E5400BF0948001D008840F02000074A45
:1013D000121D10801046008840F010001080F0BDF3
:1013E00000A24A04001002400408014008380140ED
:1013F0000CED00E00000FA0500E400E000BF054A43
:10140000128802F04002002AF9D0C2B2014B1B1D23
:101410001A807047003801407047000008B500F09E
:10142000C9FE04A01023082200210090184601F0F4
:10143000ADF808BD64617465207365740000000038
:1014400008B500F0B7FE04A0102308220021009088
:10145000184601F09BF808BD7A796A5F776174637A
:101460006800000008B500F0A5FE04A010230822C3
:1014700000210090184601F089F808BD74696D6577
:1014800020736574000000002DE9F04105460E460A
:101490003DB90E4AAE210EA0FEF7FAFE0020BDE8CF
:1014A000F0812C46002702E06469781C87B20CB1F9
:1014B000B742F9DB3CB93346044ABC210BA0FEF726
:1014C000E7FE0020EBE72046E9E700000A2A0008D3
:1014D0005B4C4F475D5B25645D5B25735D3ACDB723
:1014E000D6B8D5EBCEAABFD5210D0A005B4C4F472D
:1014F0005D5B25645D5B25735D3ACEBBD6C320255D
:101500006420B3ACB3F6C1B4B1EDB3A4B6C8210D39
:101510000A000000014600230A4601E05B1C5269F4
:10152000002AFBD1D8B270472DE9F0410746884622
:1015300015461E460024384600F0C8F800224146F1
:101540003846FFF74CFA1649384600F0CFF810B18C
:101550000120BDE8F081002410E0295D3846FFF746
:1015600047FA0F49891E384600F0C0F820B13846C6
:1015700000F0B7F80120ECE7601C84B2B442ECDB69
:101580000749891C384600F0B1F808B10120E0E7AE
:10159000384600F0A6F80220FFF710FC0020D8E73C
:1015A000820007002DE9F0410746884616461D4691
:1015B0000024384600F08AF8012241463846FFF7F9
:1015C0000EFA1649384600F091F810B10120BDE836
:1015D000F081002417E0681EA04206D100213846A1
:1015E000FFF7D8F9384600F07CF80C493E31384610
:1015F00000F07CF808B10120E9E73846FFF7EBF985
:101600003055601C84B2AC42E5DB01213846FFF75F
:10161000C1F90220FFF7D2FB0020D8E70200030047
:101620002DE9F04704460E4617469846DDE908A91D
:101630000025204600F04AF826820221204600F0CC
:1016400067F810B10120BDE8F087208BA4F8108066
:101650008021204600F05CF808B10120F3E7042166
:10166000204600F055F808B10120ECE7204600F0D4
:101670002DF827820221204600F04AF808B1012007
:10168000E1E7208B002516E0A9F10100A84206D170
:10169000208820F480602080204600F022F840213D
:1016A000204600F035F808B10120CCE7208A0AF87E
:1016B0000500681CC5B24D45E6DB208840F480601B
:1016C00020800220FFF77AFB0020BCE710B504461B
:1016D000208840F4807020800121204600F018F816
:1016E00010BD018841F400710180704770B5054656
:1016F0000E4642F2107403E0641E0CB9012070BD66
:1017000031462846FFF752F90128F5D10020F6E7C7
:10171000024642F2107303E05B1E0BB901207047D2
:10172000908A08400028F7D00020F8E72DE9F0471C
:1017300004460F4616469846DDF8209000252046C0
:10174000FFF7C4FF278202212046FFF7E1FF10B117
:101750000120BDE8F087208B268280212046FFF7FC
:10176000D7FF08B10120F4E700250EE018F80500C6
:10177000208280212046FFF7CBFF20B12046FFF7D3
:10178000B0FF0120E5E7681CC5B24D45EEDB042142
:101790002046FFF7BDFF08B10120DAE72046FFF73A
:1017A000A0FF0220FFF70AFB0020D2E710B5FFF7E9
:1017B000DBFBFFF785FC4FF4E130FFF785FD104AB6
:1017C0000121104801F0E8F80F4A01210F4801F00B
:1017D000E3F8482141F28830FFF71EFDFFF70CFBCC
:1017E000FFF766FBFFF708FC0423052214210848D5
:1017F00000F05FFF01214FF6FF70FFF76BFC10BD9B
:10180000692600084C0000207526000858000020BA
:101810007000002010B5012A05D1C36801248C4056
:10182000A343C36004E0C36801248C402343C36026
:1018300010BD0000FFF7BAFF00F03EFC00F0BAFC5C
:1018400000F0AEFA00F0D6FE23E0124801F0ADF849
:101850000446652C0ED0662C02D0672C15D10FE003
:10186000012205210C48FFF7D5FF00F053FA00F0E4
:10187000C1FE0DE0002205210748FFF7CBFF07E07E
:1018800000F00CF800F0B6FE02E000F0B3FE00BF7E
:1018900000BFDAE74C000020000C014010B50E48F4
:1018A000807AC0B10C480068A8B10B480068C068D5
:1018B00088B1002008498872C87208460068C0686C
:1018C00008600020087208734868FFF723FE024989
:1018D000487200F003F810BDF40200202DE9FE4329
:1018E00000F068FC4FF000086D48807A60B16C48E9
:1018F000006848B16A480068C06828B16848006854
:10190000C068D0F8108002E06548D0F804806448D0
:10191000007A6349097B884204DA6148007A6049A9
:1019200008730AE05E48017A007B001D814204DBF7
:101930005B48007AC01E5A4908730026A4E0584844
:10194000007B3044C5B25648407AA84200DC9EE095
:1019500029464046FFF798FD044604B997E0300752
:10196000070E4F48007AA84228D14EA01023082223
:1019700039460090002000F009FE2068102308225C
:1019800039460090104600F001FE4548C07A40B14B
:101990004348C07A10B3207902281FD02079032849
:1019A0001CD02068FEF7BAFDC0064FEA106910236C
:1019B0004A463946082000F00BFD0FE03AA01023FC
:1019C000082239460090002000F0E0FD2068102336
:1019D000082239460090104600F0D8FD20790228F0
:1019E0002AD003284CD1002001900290E06908B170
:1019F0002EA000E02EA002462EA101A8FEF754FC66
:101A000001A810230822394600904D2000F0BEFDA9
:101A10002348C07A78B12248007AA8420BD101A8A5
:101A2000FEF77CFDC0064FEA106910234A4639468E
:101A30004D2000F0CDFC24E00020019002901FA179
:101A400001A8E269FEF730FC01A8102308223946FC
:101A500000904D2000F09AFD1148C07A78B11048EE
:101A6000007AA8420BD101A8FEF758FDC0064FEA44
:101A7000106910234A4639464D2000F0A9FC00E0C9
:101A800000BF00BF701CC6B2042EFFF658AF00BFE7
:101A900003490A7A487A042100F014F8BDE8FE836D
:101AA000F40200203E0000002A0000004F4E00001B
:101AB0004F4646005B25735D000000005B25645DBA
:101AC000000000002DE9F8430646884617463F23EC
:101AD000042200217C2000F077FB00203F237F229E
:101AE000014600907B2000F02FFC402090FBF6F098
:101AF000C4B2042C00DA042407FB04F0C5B2281990
:101B0000402802DDC4F14000C5B201200090281930
:101B1000C3B27F2229467C2000F016FCBDE8F88382
:101B200070B57749774800F0DBFD04467648C07A07
:101B3000002870D07448006800286AD07248006895
:101B4000007902281FD0032863D170480068204420
:101B50006E49086008460068042804DA08460068F0
:101B600010F1040F0EDC68480068C06908B9012054
:101B700000E0002064490968C861002063490860EA
:101B8000FFF7ACFE45E06148006820445F4908600B
:101B900008460068042804DA0846006810F1040FBB
:101BA00036DC5A480068002804DD57480068806A1F
:101BB000404202E054480068806A05465248006886
:101BC000C069284450490968C8614F480068C06925
:101BD0004D490968096A884206DA4B480068006A7C
:101BE00049490968C8610DE047480068C06946492D
:101BF0000968496A884205DD43480068406A4249ED
:101C00000968C861002041490860FFF767FE00BF0E
:101C100000BF73E0FFE73D48006820443B4908608F
:101C20003B480068002801DD002C05DB38480068CF
:101C3000002804DA002C02DD002034490860344812
:101C40000460042531480068042827DB2E48807A88
:101C500058B12D48006840B12B480068C06820B1D9
:101C600029480068C068006901E0274840680646C6
:101C70002548007A002804DD2348007A401E2249C6
:101C800008722148017A3046FFF7FEFB1E490860C2
:101C9000FFF724FE00201D4908602EE01B48006865
:101CA00010F1040F29DC1848807A58B116480068F2
:101CB00040B115480068C06820B113480068C0688A
:101CC000006901E01048406806460F48017A407AF2
:101CD000401E814204DA0C48007A401C0A4908720E
:101CE0000948017A3046FFF7CFFB07490860FFF744
:101CF000F5FD00200549086000BF00BF70BD000071
:101D00007000002000040040F402002008000020C1
:101D10000400002010B52048006800B910BD1E481E
:101D20000068007930B1012824D0022816D0032899
:101D30002ED114E00120184988720020C87208468C
:101D40000068006908600020087208730868FFF7DF
:101D5000E1FB11494872FFF7C1FD19E000BF0E48D1
:101D6000C07A08B9012000E000200B49C872FFF7D3
:101D7000B5FD0DE00848006880680849884202D136
:101D8000FFF78CFD03E0044909688868804700BFBD
:101D900000BF00BFC2E70000F402002019140008D1
:101DA0002DE9F04F89B0002211466BA0FEF79AFF93
:101DB0000546002211466BA0FEF794FF06466C4ACA
:101DC00001216CA0FEF78EFF8246002211466DA015
:101DD000FEF788FF8346002211466EA0FEF782FFC1
:101DE0000746002211466EA0FEF77CFF08900022F5
:101DF00011466DA0FEF776FF07906D4A01216DA098
:101E0000FEF770FF06906A4A01216DA0FEF76AFF97
:101E100080466E4A01216EA0FEF764FF05906E4A6F
:101E200001216EA0FEF75EFF04906B4A01216EA0B7
:101E3000FEF758FF8146654A012165A0FEF752FF73
:101E40000390002203216CA0FEF74CFF02900022B9
:101E500002216BA0FEF746FF04465C4A01216BA0FD
:101E6000FEF740FF0190002001236422014600900C
:101E7000204600F013FC6E61B561C6F814A0CAF8E4
:101E80001860CAF814B0CBF818A0CBF81470C7F8D3
:101E900018B00898786108988761DDE90701486102
:101EA000DDE90710886128460699FEF707FF4146DD
:101EB0002846FEF703FF28460599FEF7FFFE069821
:101EC000C0F814800698C8F818000598C8F81400DF
:101ED0000598C0F8188030460499FEF7EFFE494691
:101EE0003046FEF7EBFE30460399FEF7E7FE049816
:101EF000C0F814900498C9F818000398C9F81400A1
:101F00000398C0F8189038460299FEF7D7FE21468C
:101F10003846FEF7D3FE38460199FEF7CFFE029809
:101F200044610298A0610198606101988461394818
:101F3000456005600020374908724868FFF7EAFAF3
:101F400034494872002008738872C872FFF7C6FCD3
:101F500009B0BDE8F08F0000312E74696D655F73C4
:101F600065740000322E646174655F7365740000EF
:101F700041140008332E6465766963655F696E6697
:101F80006F000000342E6272696768746E65737347
:101F900000000000352E766F6C756D652000000026
:101FA000362E726677200000372E74657374200019
:101FB00065140008312E7365745F686F75720000D8
:101FC000322E7365745F6D696E000000191400088D
:101FD000332E6261636B00001D140008312E73659F
:101FE000745F796561720000322E7365745F6D6F86
:101FF0006E746820000000007377697463680000E5
:102000007365745F73697A65000000006261636BD9
:1020100000000000F402002010B50C490C4800F04C
:10202000B3FB04462CB10B4A86210BA0FEF730F916
:1020300010BD6420FEF7A2FE00F0BCF8054A8D2119
:1020400011A0FEF725F900BFF2E7000028000020EC
:1020500000580040382A00085B4C4F475D5B256400
:102060005D5B25735D6572723A4F4C454420696E25
:10207000697469616C697A6174696F6E20666169FF
:102080006C65640D0A0000005B4C4F475D5B256486
:102090005D5B25735D3A4F4C454420696E697469F8
:1020A000616C697A656420737563636573736675C3
:1020B0006C6C790D0A00000010B5FFF7ADFF10BD84
:1020C00038B50446002000903A2006498870C1F8CF
:1020D00008D00120C881204600F0BAFB9DF800001E
:1020E00038BD0000380000207FB505460C462F485B
:1020F0000078002858D000200090019002900390B2
:102100003B202B498870C1F808D00E20C881284692
:1021100000F09EFB2649284600F09AFBC0BB9DF8C4
:1021200001009DF8001040EA012000B2E0809DF817
:1021300003009DF8021040EA012000B220819DF8C2
:1021400005009DF8041040EA012000B260819DF86E
:1021500007009DF8061040EA012000B2A0819DF81A
:1021600009009DF8081040EA012000B220809DF887
:102170000B009DF80A1040EA012000B260809DF833
:102180000D009DF80C1040EA012000B2A08007E08D
:10219000FFE7002060812081E080A08060802080B7
:1021A00000200249087000BF7FBD00000000002031
:1021B0003800002010B54FF480610248FEF7CDF9D9
:1021C00010BD0000840300202DE9F04304460D46B5
:1021D00016461F46284630E0234629E04FEAE07CB9
:1021E00000EB5C7C4FEAEC0CDFF8588008EBCC1C71
:1021F0001CF803C002464FEAE07800EB58784FEA3B
:10220000E808A0EBC8094FF0010808FA09F82CEA21
:10221000080C01464FEAE07800EB58784FEAE808EE
:10222000DFF8209009EBC81808F803C0591CCBB29E
:10223000A1199942D2DC411CC8B2E9198142CBDC18
:10224000BDE8F083840300202DE9FC4F04460D46D1
:1022500016461F46301B002801DB014600E04142C4
:102260000FFA81F8781B002801DB014600E04142AB
:102270000FFA81F9B44201DA012001E04FF0FF309A
:102280000190BD4201DA012001E04FF0FF300090E3
:10229000A8EB09000FFA80FA22E0294620460B9AA3
:1022A00000F022F8B44202D1BD4200D119E04FEA59
:1022B0004A000FFA80FBC9F10000834506DDAAEB56
:1022C00009000FFA80FA01982044C4B2C34506DA27
:1022D0000AEB08000FFA80FA00982844C5B200BF44
:1022E000DBE700BFBDE8FC8F70B51546802801DA3A
:1022F000402900DB70BD0C46CE1701EB5676C6F3C5
:10230000C702CE1701EB5676F610A1EBC606F3B264
:102310005DB10C4C04EBC214245C01269E40344396
:10232000084E06EBC21634540AE0064C04EBC21405
:10233000245C01269E40B443024E06EBC216345480
:1023400000BFD7E7840300202DE9F84704460D4677
:1023500016461F46DDF824A0BAF1000F15D0A0469E
:1023600010E0A94608E0012249464046FFF7BCFFBD
:1023700009F1010000F0FF09B945F4DB08F10100A3
:1023800000F0FF08B045ECDB1FE001202B46324691
:10239000294600902046FFF757FF01203B46324672
:1023A000394600902046FFF74FFF01203B4622466A
:1023B000294600902046FFF747FF01203B46324662
:1023C000294600903046FFF73FFFBDE8F887000040
:1023D0002DE9F04304460D4616461F46284638E0D0
:1023E000224631E0002A2DDB7F2A2BDC002829DB66
:1023F0003F2827DC4FEAE07C00EB5C7C4FEAEC0CEA
:10240000DFF8588008EBCC1C1CF802C003464FEAEA
:10241000E07800EB58784FEAE808A0EBC8094FF0E5
:10242000010808FA09F88CEA080C01464FEAE0783E
:1024300000EB58784FEAE808DFF8209009EBC8185D
:1024400008F802C0511C0AB2A1199142CADC411C11
:1024500008B2E9198142C3DCBDE8F083840300209F
:1024600070B505460C46A01CC4B245F0B00000F0A3
:10247000D5F804F00F0000F0D1F8102141EA141053
:1024800000F0CCF870BD00002DE9F04F05460C4679
:1024900016469846DDF824904346324621462846A3
:1024A000FFF792FEA8F10100C11700EB5171C910AE
:1024B000491C01F0FF0B2046E11704EB5171C1F3F9
:1024C000C70700215BE0002055E07B18DFF8B8C0AB
:1024D0000CEBC31305EB000C13F80C3022464FEA4B
:1024E000E47C04EB5C7C4FEAEC0CA4EBCC0C06FB2C
:1024F000010A19F80AA00AFA0CFA43EA0A0307EBE0
:10250000010CDFF884A00AEBCC1C05EB000A0CF8E8
:102510000A30E31704EB5373DB10A4EBC30343B39C
:102520007B1C0B44DAB2082A22DADFF85CC00CEB21
:10253000C21C05EB000A1CF80AC023464FEAE47AE5
:1025400004EB5A7A4FEAEA0AA4EBCA0ACAF1080A6B
:1025500006FB010E19F80EE04EFA0AFE4CEA0E0CCC
:10256000DFF824A00AEBC21A05EB000E0AF80EC031
:1025700000BF421CD0B2B042A7DB481CC1B25945D3
:10258000A1DBBDE8F08F0000840300202DE9F843B3
:102590000546884616469946089F00240BE0385D9C
:1025A00004FB06510090C8B24B463246414600F04B
:1025B00007F8601CC4B2385D0028F0D1BDE8F8838C
:1025C0002DE9F84304460D4616461F46DDF82090D7
:1025D000A9F1200000F0FF08054800EB08103B4679
:1025E0003246294600902046FFF74EFFBDE8F883AB
:1025F000462A000810B500240BE000212046FFF712
:102600002FFF054901EBC410802100F019F8601C70
:10261000C4B2082CF1DB10BD8403002001B584B0E6
:10262000054B0FCB8DE80F0004A8029069460348C4
:1026300000F0AAF805B000BD182A000800580040B4
:102640007FB505460C46064B0FCB8DE80F00029573
:10265000ADF80E406946034800F096F87FBD0000D3
:10266000282A00080058004001480068C0B270479E
:102670000001214201480068C0B270470C012342AA
:1026800070B50446A06880470546E07908B9284639
:1026900070BD0DB90120FBE70020F9E730B5039CC0
:1026A00030B10579022D03D1016242628362C461B7
:1026B00030BD10B5002404604460C46084600182B1
:1026C00014B2048383740024446110BD70B50546C0
:1026D0000C462846FEF788FAA18A00EB014070BD3F
:1026E00070B505460C4621462846FFF7EFFF2060EF
:1026F000D4E90001401AE06020686060E06870BDC5
:1027000070B504460CB1A06800B970BD2046FFF753
:10271000B7FF0546207845EA40002070207810B9C0
:102720000020607004E02078FF2801D10120607053
:102730006078A178884212D0A07920F0C000A07102
:10274000607830B1A07940F04000A0710020A080F6
:1027500003E0A07940F08000A0716078A0706078FC
:1027600080B1A088401CA080A088B0F5167F09DB4E
:10277000A07920F0C000A071A07940F0C000A07145
:102780000020A08000BFC0E7F8B506460C46002731
:102790000025224886421FD100BF14E0A38921787A
:1027A00030466268FEF7C0FE47B24FB12B461C4A66
:1027B00022211CA0FDF76CFD0120FEF7DFFA00E0EE
:1027C00003E0681C45B2032DE8DB00BF032D01DBED
:1027D0000120F8BD0020FCE7002516E0E08900900C
:1027E000A27821783046A368FEF7A0FF47B24FB128
:1027F0002B460B4A2E210BA0FDF74AFD0120FEF7C8
:10280000BDFA00E003E0681C45B2032DE6DB00BF23
:10281000032D01DB0120DCE70020DAE70054004053
:10282000653100085B4C4F475D5B25645D5B25733C
:102830005D6572723A7379735F6932635F7772694B
:1028400074655F72657472793A2025643B0D0A00E5
:102850002DE9FC4107460C46002600252E488742FC
:1028600035D100BF29E0A389217838466268FEF798
:102870005BFE46B256B13346284A502128A0009547
:10288000FDF706FD0120FEF779FA14E0E38961788F
:102890003846A268FEF786FE304346B256B133464C
:1028A0001E4A57212EA00095FDF7F2FC0120FEF7ED
:1028B00065FA00E003E0681C45B2052DD3DB00BFDC
:1028C000052D02DB0120BDE8FC810020FBE700258F
:1028D00019E0E089A168CDE90010A3786278217839
:1028E0003846FEF79DFE46B256B133460B4A632189
:1028F0001BA00095FDF7CCFC0120FEF73FFA00E09D
:1029000003E0681C45B2052DE3DB00BF052D01DBAC
:102910000120D8E70020D6E70054004073310008BA
:102920005B4C4F475D5B25645D5B25735D65727233
:102930003A7379735F6932635F77726974655F7246
:102940006561645F72657472793A207265743A25C4
:10295000642C72657472793A25643B0D0A0000009C
:102960005B4C4F475D5B25645D5B25735D657272F3
:102970003A7379735F6932635F726561645F726530
:102980007472793A207265743A25642C7265747297
:10299000793A25643B0D0A0000230370437083706D
:1029A00083808371C171826070470146887982118A
:1029B00000208871012A04D0022A04D0032A06D1FB
:1029C00003E0662070476520FCE76720FAE70020F7
:1029D000F8E766756E635F74657374310066756ED3
:1029E000635F74657374320066756E635F746573DC
:1029F00074330066756E635F74657374340063725C
:102A0000656174655F6974656D006765745F656CA9
:102A1000656D5F6974656D0078000000000000005E
:102A200000000000000001007800400000000000ED
:102A300000000000000000006D6F645F6F6C656453
:102A40005F696E6974000000000000000000000073
:102A5000000000000000000000F80000000000007E
:102A600000333000000000100C06100C06000000BF
:102A700000000000000040C07840C0784000043FE3
:102A800004043F040400007088FC083000000018B3
:102A900020FF211E0000F008F000E01800000021D7
:102AA0001C031E211E0000F00888700000001E217B
:102AB00023241927211010160E000000000000002A
:102AC000000000000000000000E018040200000008
:102AD00000071820400000020418E0000000004039
:102AE000201807000000404080F0804040000202B3
:102AF000010F01020200000000F0000000000101CF
:102B0000011F01010100000000000000000080B072
:102B10007000000000000000000000000000000144
:102B2000010101010101000000000000000000306F
:102B30003000000000000000000080601804006009
:102B400018060100000000E010080810E000000F67
:102B5000102020100F00001010F8000000000020CE
:102B6000203F202000000070080808887000003016
:102B700028242221300000300888884830000018BE
:102B8000202020110E000000C02010F800000007D7
:102B90000424243F240000F808888808080000194D
:102BA000212020110E0000E0108888180000000F7E
:102BB000112020110E0000380808C8380800000055
:102BC000003F000000000070880808887000001CAA
:102BD000222121221C0000E010080810E000000063
:102BE000312222110F00000000C0C00000000000D0
:102BF00000303000000000000080000000000000F5
:102C000080600000000000008040201008000001EB
:102C100002040810200040404040404040000404AE
:102C20000404040404000008102040800000002078
:102C3000100804020100007048080808F0000000B5
:102C4000003036010000C030C828E810E000071846
:102C5000272423140B000000C038E0000000203CB3
:102C600023020227382008F8888888700000203F57
:102C7000202020110E00C03008080808380007186E
:102C800020202010080008F808080810E000203F65
:102C9000202020100F0008F88888E8081000203F46
:102CA00020202320180008F88888E8081000203F1A
:102CB000200003000000C030080808380000071892
:102CC0002020221E020008F808000008F808203F13
:102CD000210101213F20000808F808080000002019
:102CE000203F2020000000000808F8080800C080ED
:102CF00080807F00000008F888C028180800203F66
:102D000020012638200008F8080000000000203FBD
:102D100020202020300008F8F800F8F80800203FB4
:102D2000003F003F200008F830C00008F808203FAE
:102D3000200007183F00E01008080810E0000F10FE
:102D4000202020100F0008F808080808F000203F95
:102D5000210101010000E01008080810E0000F1830
:102D6000242438504F0008F8888888887000203F55
:102D70002000030C30200070880808083800003854
:102D8000202121221C00180808F80808180000005B
:102D9000203F2000000008F808000008F808001F85
:102DA000202020201F000878880000C83808000074
:102DB00007380E010000F80800F80008F800033C8E
:102DC0000700073C03000818688080681808203056
:102DD0002C03032C30200838C800C8380800000035
:102DE000203F2000000010080808C83808002038DC
:102DF000262120201800000000FE02020200000030
:102E0000007F40404000000C30C000000000000087
:102E100000010638C00000020202FE00000000406F
:102E200040407F0000000000040202020400000095
:102E30000000000000000000000000000000808092
:102E4000808080808080000202040000000000007A
:102E50000000000000000000808080800000001959
:102E6000242222223F2008F8008080000000003F3A
:102E7000112020110E000000008080800000000E54
:102E8000112020201100000000808088F800000E32
:102E9000112020103F200000808080800000001F53
:102EA000222222221300008080F0888888180020C7
:102EB000203F202000000000808080808000006B88
:102EC00094949493600008F8008080800000203F74
:102ED000210000203F200080989800000000002082
:102EE000203F20200000000000809898000000C0D3
:102EF0008080807F000008F8000080808000203FF4
:102F000024022D302000000808F8000000000020F6
:102F1000203F202000008080808080808000203F33
:102F200020003F20003F8080008080800000203F04
:102F3000210000203F200000808080800000001FD2
:102F4000202020201F00808000808000000080FF63
:102F5000A12020110E000000008080808000000E63
:102F6000112020A0FF8080808000808080002020B1
:102F70003F2120000100000080808080800000331D
:102F8000242424241900008080E0808000000000B8
:102F9000001F202000008080000000808000001FB3
:102FA000202020103F208080800000808080000151
:102FB0000E300806010080800080008080800F3085
:102FC0000C030C300F000080800080808000002007
:102FD000312E0E3120008080800000808080808132
:102FE0008E701806010000808080808080000021A3
:102FF000302C2221300000000000807C0202000002
:103000000000003F404000000000FF000000000002
:103010000000FF0000000002027C80000000004071
:10302000403F00000000000601010202040400000D
:10303000000000000000FF0101010101010181C148
:103040003119090D0505050D1971C10101010101B4
:103050000101010101FFFF0000000000007887006E
:1030600000000000000000000000037CC000000021
:103070000000000030FFFF000000000000001F788B
:10308000C08000000000000000000080FF00000081
:103090000000000000FFFFA0E08080808080808032
:1030A00080818382848C8888888C868380808080DD
:1030B0008080808080FFC4E300008060F8074020AB
:1030C000180F08C80808281800010000FF00100C9D
:1030D0000340807F0001061800BAC3001010F01FE3
:1030E00010F000808282E2928A86800040221508D9
:1030F0001661000040807F0000000000CAC0002070
:103100002020FE2020FF202020FF20202020000063
:1031100000007F404047444444474040400000BDD9
:10312000E700000000FE929292FE929292FE000052
:10313000000008080484621E010001FE0204040865
:103140000800000000FFFFFFFFFFFFFFFFFFFFFF82
:10315000FFFFFFFFFFFFFFFFFFFFFFFFFFFFFFFF7F
:10316000FFFFFFFFFF7379735F6932635F777269F7
:103170007465007379735F6932635F777269746530
:103180005F72656164000400000800000000000038
:103190000002000100001000B8310008000000200B
:1031A0004C00000028010008043200084C000020F8
:1031B0009C11000044010008000000000000000015
:1031C00000000000AE021040B081CFA1A6A83FAD24
:1031D0008B33C8D300D580D91FDA12DB40AF000093
:1031E00078000000000000000C00002000001A0021
:1031F000D0D100000000000000000000000000002E
:0432000000000000CA
:04000005080000ED02
:00000001FF
