:020000040800F2
:1000000090070020D50100080508000883060008B5
:10001000010800085505000833140008000000001E
:10002000000000000000000000000000991000081F
:1000300059050008000000001F0E0008AD1100085F
:10004000EF010008EF010008EF010008EF010008D0
:10005000EF010008EF010008EF010008EF010008C0
:10006000EF010008EF010008EF010008EF010008B0
:10007000EF010008EF010008EF010008EF010008A0
:10008000EF010008EF010008EF010008EF01000890
:10009000EF010008EF010008EF010008EF01000880
:1000A000EF010008EF010008EF010008EF01000870
:1000B000EF010008EF010008EF010008EF01000860
:1000C000EF010008EF010008EF010008EF01000850
:1000D000EF01000811120008EF010008EF0100080D
:1000E000EF010008EF010008EF010008EF01000830
:1000F000EF010008EF010008EF010008EF01000820
:10010000EF010008EF010008EF010008EF0100080F
:10011000EF010008EF010008EF010008EF010008FF
:10012000EF010008EF010008EF010008EF010008EF
:1001300000F002F800F03FF80AA090E8000C8244BA
:100140008344AAF10107DA4501D100F034F8AFF297
:10015000090EBAE80F0013F0010F18BFFB1A43F0A5
:1001600001031847081E0000281E0000103A24BF93
:1001700078C878C1FAD8520724BF30C830C144BF0C
:1001800004680C607047000000230024002500264E
:10019000103A28BF78C1FBD8520728BF30C148BFEA
:1001A0000B607047642900F08B80002070471FB5FA
:1001B0001FBD10B510BD00F09AF91146FFF7F7FF0B
:1001C00001F0EAF900F0B8F903B4FFF7F2FF03BC5D
:1001D00001F08AF90948804709480047FEE7FEE731
:1001E000FEE7FEE7FEE7FEE7FEE7FEE7FEE7FEE7E7
:1001F00004480549054A064B70470000B111000844
:100200003101000890010020900700209003002099
:1002100090030020704700000FB4044910B503AAF2
:10022000029800F027F910BC5DF814FB3C00002098
:100230000FB41CB5074B06AA7B446946009005988D
:1002400000F0FFF80020694600F00EF91CBC5DF8D4
:1002500014FB00002D0200002DE9F0410E4604467B
:10026000002020622046E168884730B3252805D069
:10027000D4E901219047206A401CF2E7E16820465A
:1002800000278847050018D0A5F14100192802D899
:1002900020354FF400673246294620462760FFF795
:1002A00081FF40B1012804D0F61D26F0070608366C
:1002B000D8E7361DD6E72846DAE7206ABDE8F081A0
:1002C0002DE9F0410646002410687529314616A52F
:1002D00010D0AFF30080002802DA404213A507E0F7
:1002E00031688A0701D512A502E0490704D511A596
:1002F000012401E0AFF3008000210A2206F1240767
:1003000009E0B0FBF2FCB0FBF2F302FB1C00303062
:1003100078541846491C0028F3D123462A46304613
:10032000BDE8F04100F02EB8000000002D000000F4
:100330002B000000200000004FF000020429C0F054
:10034000128010F0030C00F0A980CCF1040CBCF179
:10035000020F18BF00F8012BA8BF20F8022BA1EB59
:100360000C0100F09BB85FEAC17C24BF00F8012BB0
:1003700000F8012B48BF00F8012B70477047704709
:10038000704770472DE9F0470D469946924604465E
:1003900000F124080168880604D5E06921F0100105
:1003A000216000E00120A84201DD471B00E000279A
:1003B000A1697A1902EB0900081AA0612078C00629
:1003C00002D42046AFF30080002608E0D4E90121E2
:1003D0001AF806009047206A401C761C20624E45A1
:1003E000F4DB2078C0060AD52046AFF3008006E093
:1003F000D4E9012130209047206A401C2062381E39
:10040000A7F10107F4DC07E0D4E9012118F80500A1
:100410009047206A401C2062281EA5F10105F3DCEC
:100420002046AFF300802078000602D50220BDE808
:10043000F0870120FBE7000001694A1C026108788F
:10044000704700B58FB0CDE9013100210591054914
:100450007944CDE9031011466846FFF7FDFE0FB061
:1004600000BD0000E5FFFFFF0A6802F8010B0A600B
:1004700070470000074B70B50D467B44FFF7E1FF66
:100480000446284600F02FF810B14FF0FF3070BD41
:10049000204670BDFF1000004FF0000200B513466B
:1004A00094469646203922BFA0E80C50A0E80C5094
:1004B000B1F12001BFF4F7AF090728BFA0E80C5045
:1004C00048BF0CC05DF804EB890028BF40F8042B3E
:1004D00008BF704748BF20F8022B11F0804F18BFAB
:1004E00000F8012B7047007B00F0800070477546D4
:1004F00000F02CF8AE4605006946534620F0070090
:10050000854618B020B5FFF773FEBDE820404FF0D8
:1005100000064FF000074FF000084FF0000B21F0ED
:100520000701AC46ACE8C009ACE8C009ACE8C009BA
:10053000ACE8C0098D46704710B50446AFF30080A3
:100540002046BDE81040FFF73FBE0000004870475E
:100550002C01002000BFFEE770472DE9F041024664
:1005600000250026002000230024002791F803C066
:100570000CF00F0591F803C00CF0100CBCF1000F4B
:1005800003D091F802C04CEA050591F800C0BCF117
:10059000000F31D0146800202BE04FF0010C0CFA52
:1005A00000F3B1F800C00CEA03069E4220D183009C
:1005B0004FF00F0C0CFA03F7BC4305FA03FC4CEAAE
:1005C000040491F803C0BCF1280F06D14FF0010CD0
:1005D0000CFA00FCC2F814C00AE091F803C0BCF1A8
:1005E000480F05D14FF0010C0CFA00FCC2F810C006
:1005F000401C0828D1D31460B1F800C0BCF1FF0F33
:1006000034DD546800202EE000F1080C4FF00108A2
:1006100008FA0CF3B1F800C00CEA03069E4221D19F
:1006200083004FF00F0C0CFA03F7BC4305FA03FCF0
:100630004CEA040491F803C0BCF1280F05D100F185
:10064000080C08FA0CF8C2F8148091F803C0BCF149
:10065000480F07D100F1080C4FF0010808FA0CF818
:10066000C2F81080401C0828CED35460BDE8F08149
:1006700041617047016170470AB1016100E0416169
:10068000704700BFFEE7000010B508210848FFF7DB
:10069000F1FF4FF480710648FFF7ECFF4FF48071D3
:1006A0000348FFF7E5FF08210148FFF7E1FF10BD10
:1006B0000014014010B508210648FFF7DBFF4FF496
:1006C00080710448FFF7D4FF4FF480710148FFF7B1
:1006D000D1FF10BD0014014010B508210348FFF7F9
:1006E000C9FF08210148FFF7C3FF10BD00140140F6
:1006F00008B50121402000F0A3FB7820ADF80000F0
:1007000048208DF8030003208DF802006946024856
:10071000FFF723FF08BD00000018014010B5044694
:1007200014B10120274908702648007890B3264864
:10073000006801280ED02448001D0068012809D057
:10074000214808300068012804D01F480C30006898
:10075000012820D10A2000F0EBFE00201949087082
:1007600019480068012800D110BD1748001D006815
:10077000012801D10220F7E713480830006801285A
:1007800001D10320F0E710480C300068012817D190
:100790000420E9E7FFE70C480068012810D10A4867
:1007A000001D006801280BD10748083000680128A7
:1007B00006D105480C300068012801D101490870B4
:1007C0000020D1E7200000200C01234208B50121C0
:1007D000482000F035FB2020ADF8000010208DF8F7
:1007E000030003208DF8020069460448FFF7B5FEB8
:1007F000012220210148FFF73FFF08BD000C014006
:1008000000BFFEE7704700001CB511A103C9CDE988
:100810000001082000F0F4FB05226946302000F0BA
:1008200031F905226946102000F090F8002406E016
:100830001DF80400A52800D003E0601CC4B2052CFC
:10084000F6DB00BF052C01D001201CBD0020FCE719
:10085000A5A5A5A5A500000000B587B001214FF40E
:10086000847000F0EDFA4FF48050ADF818001020BD
:100870008DF81B0003208DF81A0006A92E48FFF7FB
:100880006CFE4FF480512C48FFF7F4FEC020ADF809
:10089000180010208DF81B0003208DF81A0006A9FF
:1008A0002648FFF75AFE4FF48070ADF81800282054
:1008B0008DF81B0003208DF81A0006A91F48FFF7CA
:1008C0004CFEC0211D48FFF7D3FE4FF480711B483A
:1008D000FFF7CEFE00F02EFB0021194800F0A4FB2C
:1008E0000020ADF804004FF48270ADF8060000203F
:1008F000ADF80800ADF80A00ADF80C004FF4007038
:10090000ADF80E001820ADF810000020ADF8120070
:100910000720ADF8140001A9094800F09FFB012150
:10092000074800F081FB00200649086001200649C5
:10093000C1F89C0107B000BD000C0140002001403F
:100940000038004098012442000024422DE9F04183
:1009500007460D46164600200A490860384600F052
:1009600033FB8046002405E0FF2000F02DFB2855D6
:10097000601CC4B2B442F7DB012002490860404663
:10098000BDE8F0819C01244270B50446002007496F
:100990000860204600F018FBFF2000F015FB05461C
:1009A00001200349C1F89C01284670BD9C012442E6
:1009B0000000244210B500201449086005221449A3
:1009C000302000F05FF8052212492A2000F05AF882
:1009D0000121212000F074F80121222000F070F89C
:1009E0001A21242000F06CF82821252000F068F856
:1009F0000F21262000F064F80E21202000F060F87E
:100A000001200549C1F8980110BD00009801244259
:100A1000481700084D1700080000244270B505462D
:100A2000102000F0EDFA0020144908602022294629
:100A3000A02000F027F801201149C1F8980100BF5B
:100A40000E48783800680028FAD10720FFF79CFF8D
:100A500004462146272000F033F804F0100028B1A6
:100A6000FF21E12000F02CF8102070BD04F02000E0
:100A700008B12020F9E7FF20F7E7000098012442A1
:100A8000000024422DE9F04107460C46154600209F
:100A90000A490860384600F097FA8046002605E0CB
:100AA00014F8010B00F090FA701CC6B2AE42F7DBEE
:100AB0000120024908604046BDE8F0819C012442C3
:100AC00070B505460C46002007490860284600F02E
:100AD0007BFA0646204600F077FA01200349C1F868
:100AE0009C01304670BD00009C012442000024425D
:100AF00070B504460E46002520210848FFF71CFC6F
:100B000000BF04E0207805494855641C6D1CB542BF
:100B1000F8DB0248FFF782FF70BD000044000020B0
:100B200070B5002100230F22C47804B3154C24684B
:100B300004F4E064C4F5E064210AC1F10403CA408E
:100B4000447804FA03F184781440214309010E4CDF
:100B50000678A155047804F01F050124AC400578FF
:100B60006D11AD0005F1E025C5F8004109E00478FC
:100B700004F01F050124AC40044D0678761145F8B9
:100B8000264070BD0CED00E000E400E080E100E0F4
:100B900002490143024A1160704700000000FA0553
:100BA0000CED00E070B5002418E004F1B000002165
:100BB00000F029F90021084600F025F90021102055
:100BC00000F021F9002505E00121002000F01BF9CB
:100BD000681CC5B2802DF7DB601CC4B2082CE4DBB6
:100BE00070BD000008B50121202000F029F9012185
:100BF000084600F025F94FF48470ADF8000010208D
:100C00008DF8030003208DF8020069463B48FFF78A
:100C1000A4FC4FF484713948FFF72CFDC82000F084
:100C200087FC0021AE2000F0EEF80021084600F01D
:100C3000EAF80021102000F0E6F80021402000F042
:100C4000E2F80021B02000F0DEF80021812000F061
:100C5000DAF80021FF2000F0D6F80021A12000F0F2
:100C6000D2F80021A62000F0CEF80021A82000F044
:100C7000CAF800213F2000F0C6F80021C82000F08B
:100C8000C2F80021D32000F0BEF80021084600F091
:100C9000BAF80021D52000F0B6F80021802000F03D
:100CA000B2F80021D82000F0AEF80021052000F0B5
:100CB000AAF80021D92000F0A6F80021F12000F0C8
:100CC000A2F80021DA2000F09EF80021122000F0A6
:100CD0009AF80021DB2000F096F80021302000F087
:100CE00092F800218D2000F08EF80021142000F0F1
:100CF0008AF80021AF2000F086F808BD00140140FA
:100D000070B504460D4605F1B000002100F07BF8F7
:100D1000102141EA1410002100F075F804F00F00D2
:100D2000002100F070F870BD2DE9F04707460E462F
:100D30009046994600250024A8F12000C5B27F2FD7
:100D400002DD0027B01CC6B2B9F1100F24D1314624
:100D50003846FFF7D5FF002408E004EB0511194AD7
:100D6000505C012100F04FF8601CC4B2082CF4DB89
:100D7000701CC1B23846FFF7C3FF002409E004EB42
:100D8000051108310F4A505C012100F03CF8601C4D
:100D9000C4B2082CF3DB12E031463846FFF7B0FF4F
:100DA00000240AE005EB4501074A02EB4101085D1A
:100DB000012100F028F8601CC4B2062CF2DBBDE86B
:100DC000F08700007A190008521700082DE9F04159
:100DD00004460F461546984600260FE0AA5D434696
:100DE00039462046FFF7A0FF04F10800C4B2782C72
:100DF00002DD0024B81CC7B2701CC6B2A85D002872
:100E0000ECD1BDE8F08170B504460D461DB1E0B2ED
:100E100000F054FB02E0E0B200F03AFB70BD704716
:100E200029B1064AD2690243044BDA6104E0034A5D
:100E3000D2698243014BDA61704700000010024022
:100E400029B1064A92690243044B9A6104E0034ABD
:100E500092698243014B9A61704700000010024082
:100E600030B500210022002400232D4D6D6805F0CF
:100E70000C0121B1042905D0082923D105E0294D11
:100E8000056022E0274D05601FE0254D6D6805F4E3
:100E90007012234D6D6805F48034022505EB9242F3
:100EA0001CB9214D554305600BE01D4D6D6805F4DF
:100EB00000351DB11C4D5543056002E0194D5543E9
:100EC000056002E0174D056000BF00BF144D6D685E
:100ED00005F0F0010909154D6B5C0568DD404560C2
:100EE0000F4D6D6805F4E061090A104D6B5C4568B3
:100EF000DD4085600A4D6D6805F46051C90A0B4DEF
:100F00006B5C4568DD40C560054D6D6805F440418A
:100F1000890B074D6B5CC568B5FBF3F5056130BD0A
:100F20000010024000127A0000093D00210000205C
:100F30003100002000B587B001210820FFF780FFB5
:100F400001218803FFF76CFF4FF46040ADF81800F3
:100F500018208DF81B0003208DF81A0006A91848E8
:100F6000FFF7FBFA4FF460411548FFF783FB0020C1
:100F7000ADF804004FF48270ADF806000020ADF823
:100F800008000220ADF80A000120ADF80C00400274
:100F9000ADF80E003820ADF810000020ADF81200BA
:100FA0000720ADF8140001A9064800F057F8012108
:100FB000044800F039F8FF2000F006F807B000BD43
:100FC000000C01400038004010B5044600BF02216B
:100FD0000A4800F035F80028F9D02146074800F00B
:100FE0003BF800BF0121054800F02AF80028F9D09D
:100FF000024800F02EF8C0B210BD000000380040DA
:1010000010B50446074800884FF6C77108400549E7
:10101000088008460088204308800121014800F02C
:1010200003F810BD0038004021B1028842F04002B0
:10103000028004E002884FF6BF731A4002807047B6
:101040000246002013890B400BB1012000E0002074
:1010500070470146888970478181704710B500222A
:10106000028802F441520B884C8823438C88234326
:10107000CC8823430C8923434C8923438C89234305
:10108000CC8923431A430280838B4FF2FF742340A1
:1010900083830B8A038210BD704710B500F002F8FD
:1010A00010BD00000CB5002001900090334800688E
:1010B00040F480303149086000BF3048006800F4D7
:1010C000003000900198401C0190009818B90198D8
:1010D000B0F5A06FF1D12948006800F4003010B1DC
:1010E0000120009001E0002000900098012843D1E9
:1010F0002348006840F01000214908600846006855
:1011000020F0030008600846006840F00200086014
:101110001A484068194948600846406848600846CF
:10112000406840F4806048600846406820F47C10C5
:1011300048600846406840F4E81048600846006887
:1011400040F08070086000BF0C48006800F000703C
:101150000028F9D00948406820F00300074948609A
:101160000846406840F00200486000BF03484068FD
:1011700000F00C000828F9D10CBD0000001002405E
:1011800000200240042808D14FF0E021096941F015
:1011900004014FF0E022116107E04FF0E0210969FE
:1011A00021F004014FF0E022116170477047000008
:1011B00010B51348006840F0010011490860084666
:1011C0004068104908400E494860084600680E49CA
:1011D00008400B4908600846006820F48020086039
:1011E0000846406820F4FE0048604FF41F00886005
:1011F000FFF753FF4FF000600449086010BD000086
:10120000001002400000FFF8FFFFF6FE08ED00E0CE
:1012100010B540F225511D4800F04AF810B31B48A4
:1012200000F002F9C4B21A48008800F40040C8B9BE
:101230001748008800F4804060B10A2C03D00020D9
:101240001349088020E01248008840F4004010490B
:10125000088019E00D2C06D10D48008840F480402C
:101260000B49088010E00A480088C0F30D000949C6
:101270000C5407480088401C05490880084600882F
:10128000C72801DD0020088010BD000000380140A3
:10129000400000206400002021B1828942F4005205
:1012A000828104E082894DF6FF731A408281704783
:1012B00070B50246002400230025002040F66A167F
:1012C000B14200D100BFC1F3421501F01F03012656
:1012D00006FA03F3012D02D19689334006E0022D70
:1012E00002D1168A334001E0968A33400C1201265F
:1012F00006FA04F41688344013B10CB1012000E062
:10130000002070BDF0B50346002400260025002013
:1013100040F66A17B94200D100BF1846C1F3421423
:1013200001F01F06012707FA06F5012C01D10C3048
:1013300004E0022C01D1103000E014301AB107682B
:101340002F43076002E00768AF430760F0BD00006D
:101350002DE9F04786B005460E460024A24600BFA0
:10136000A1460027B08900B100BF2F462C8A4CF659
:10137000FF700440F08804432C82AC894EF6F310D1
:101380000440B08831890843718908430443AC8123
:10139000AC8A4FF6FF400440B0890443AC8201A8F8
:1013A000FFF75EFD1F48874202D1DDF810A001E083
:1013B000DDF80CA0A88900F4004040B10AEBCA0097
:1013C00000EB0A1031684900B0FBF1F807E00AEBC6
:1013D000CA0000EB0A1031688900B0FBF1F8642004
:1013E000B8FBF0F004012009642101FB1089A889F1
:1013F00000F4004040B1322000EBC900B0FBF1F036
:1014000000F00700044308E0322000EB09106421DB
:10141000B0FBF1F000F00F0004432C8106B0BDE8F2
:10142000F08700000038014001468888C0F30800BA
:10143000704700BFFEE700002DE9F04105462C464D
:1014400008211248FFF714F900261AE0274607F092
:101450008007802F04D179000C48FFF70BF904E0D6
:101460004FF480710948FFF703F96006040E082164
:101470000648FFF7FFF808210448FFF7F9F8701C49
:10148000C6B2082EE2DBBDE8F08100000014014086
:1014900010B50446FFF7F8F87820FFF7CDFFFFF707
:1014A0001BF90020FFF7C8FFFFF716F92046FFF7EA
:1014B000C3FFFFF711F9FFF7FDF810BD10B50446A3
:1014C000FFF7E2F87820FFF7B7FFFFF705F94020B4
:1014D000FFF7B2FFFFF700F92046FFF7ADFFFFF778
:1014E000FBF8FFF7E7F810BD00BF704710B56FF0CD
:1014F0000400FFF747FE0A4800680A49B0FBF1F014
:10150000094908700846007800EB4001C1EBC010A3
:101510004FF6FF7101EAC0000449088010BD0000C9
:101520000C00002000127A00360000203800002055
:101530000146114A12884A434FF0E0235A610022C3
:101540009A611A46126942F001021A6100BF4FF017
:10155000E022106900F001021AB100F48032002A82
:10156000F5D04FF0E022126922F001024FF0E023A3
:101570001A6100229A6170473800002000BF054AB6
:10158000128802F04002002AF9D0C2B2014B1B1DA2
:101590001A807047003801408CB000240020099068
:1015A0000A900B904FF4A060FFF7F2FAFFF79EFF4E
:1015B000FFF70CF9FFF79CF84FF4E13000F074F8F6
:1015C000FFF7B8FCFFF748F9FFF70CFBFFF7EAFA63
:1015D0000EE00020284908604FF4FA70FFF7A8FFDA
:1015E00001202649C1F894014FF4FA70FFF7A0FFDB
:1015F000FFF70AF90028ECD1FFF7DCF93AE02048C0
:10160000027820A109A8FEF713FE102309AA0021E1
:101610000846FFF7DBFB1E4801681EA0FEF7FCFD35
:101620001B48002101601648007819490860042110
:101630001748FFF75DFA1B49C1F800D00020FFF7FB
:101640006DF804469CB1012C06D0022C0BD0032C63
:101650000AD0042C0AD108E00120094908700020B2
:101660000549086002E001E000E000BF02E00A2056
:10167000FFF75EFFC3E70000948121420080214212
:1016800008000020616374696F6E3D2564000000EE
:1016900004000020616374696F6E3A2564200D0AAE
:1016A000000000000000002010B586B004460121B3
:1016B00044F20400FFF7C4FB4FF40070ADF81400CF
:1016C00003208DF8160018208DF8170005A91C4876
:1016D000FEF743FF4FF48060ADF8140004208DF84E
:1016E000170005A91648FEF738FF25208DF80000E1
:1016F00002208DF801008DF8020001208DF8030012
:101700006846FFF70DFA01940020ADF80800ADF827
:101710000A00ADF80C00ADF810000C20ADF80E007A
:1017200001A90848FFF714FE012240F2255105489F
:10173000FFF7E8FD01210348FFF7AEFD06B010BD3D
:1017400000080140003801403443101001344310B8
:1017500010010000000000000000002F0000000049
:101760000700070000147F147F1400242A7F2A1228
:101770000062640813230036495522500000050317
:10178000000000001C224100000041221C00001447
:10179000083E08140008083E0808000000A0600089
:1017A0000008080808080000606000000020100819
:1017B0000402003E5149453E0000427F4000004285
:1017C00061514946002141454B31001814127F10E8
:1017D000002745454539003C4A4949300001710917
:1017E000050300364949493600064949291E0000CB
:1017F0003636000000005636000000081422410072
:1018000000141414141400004122140800020151A1
:10181000090600324959513E007C1211127C007FAA
:1018200049494936003E41414122007F4141221C45
:10183000007F49494941007F09090901003E4149AA
:10184000497A007F0808087F0000417F410000209E
:1018500040413F01007F08142241007F404040404A
:10186000007F020C027F007F0408107F003E414190
:10187000413E007F09090906003E4151215E007F7B
:10188000091929460046494949310001017F0101F2
:10189000003F4040403F001F2040201F003F403895
:1018A000403F0063140814630007087008070061D4
:1018B0005149454300007F41410000552A552A55B2
:1018C000000041417F00000402010204004040404A
:1018D0004040000001020400002054545478007F6E
:1018E0004844443800384444442000384444487F45
:1018F00000385454541800087E0901020018A4A4AA
:10190000A47C007F080404780000447D400000406F
:1019100080847D00007F102844000000417F40004B
:10192000007C04180478007C0804047800384444DF
:10193000443800FC242424180018242418FC007CBB
:101940000804040800485454542000043F44402034
:10195000003C4040207C001C2040201C003C4030CB
:10196000403C004428102844001CA0A0A07C004457
:1019700064544C44141414141414000000000000A7
:1019800000000000000000000000000000F800005F
:101990000000000000333000000000100C06100CA6
:1019A0000600000000000000000040C07840C07841
:1019B0004000043F04043F040400007088FC083029
:1019C0000000001820FF211E0000F008F000E018C1
:1019D000000000211C031E211E0000F0088870007A
:1019E00000001E2123241927211010160E000000CC
:1019F00000000000000000000000000000E01804EB
:101A00000200000000071820400000020418E00057
:101A100000000040201807000000404080F0804097
:101A200040000202010F01020200000000F000006D
:101A300000000101011F0101010000000000000081
:101A4000000080B0700000000000000000000000F6
:101A5000000000010101010101010000000000007F
:101A60000000003030000000000000000000806036
:101A70001804006018060100000000E010080810BB
:101A8000E000000F102020100F00001010F80000E0
:101A900000000020203F2020000000700808088877
:101AA0007000003028242221300000300888884847
:101AB00030000018202020110E000000C02010F877
:101AC000000000070424243F240000F80888880848
:101AD00008000019212020110E0000E0108888184D
:101AE0000000000F112020110E0000380808C8382F
:101AF00008000000003F000000000070880808880F
:101B00007000001C222121221C0000E01008081097
:101B1000E0000000312222110F00000000C0C000D0
:101B200000000000003030000000000000800000D5
:101B300000000000806000000000000080402010D5
:101B400008000001020408102000404040404040CE
:101B50004000040404040404040000081020408031
:101B60000000002010080402010000704808080866
:101B7000F0000000003036010000C030C828E81036
:101B8000E0000718272423140B000000C038E000F1
:101B90000000203C23020227382008F8888888703B
:101BA0000000203F202020110E00C0300808080847
:101BB0003800071820202010080008F8080808102E
:101BC000E000203F202020100F0008F88888E80857
:101BD0001000203F20202320180008F88888E808FB
:101BE0001000203F200003000000C0300808083823
:101BF000000007182020221E020008F80800000834
:101C0000F808203F210101213F20000808F80808BA
:101C100000000020203F2020000000000808F808F5
:101C20000800C08080807F00000008F888C0281865
:101C30000800203F20012638200008F80800000096
:101C40000000203F20202020300008F8F800F8F89D
:101C50000800203F003F003F200008F830C0000887
:101C6000F808203F200007183F00E010080808107F
:101C7000E0000F10202020100F0008F808080808C6
:101C8000F000203F210101010000E01008080810C9
:101C9000E0000F18242438504F0008F888888888FE
:101CA0007000203F2000030C3020007088080808D6
:101CB00038000038202121221C00180808F80808E4
:101CC00018000000203F2000000008F8080000086D
:101CD000F808001F202020201F000878880000C876
:101CE0003808000007380E010000F80800F8000866
:101CF000F800033C0700073C030008186880806870
:101D0000180820302C03032C30200838C800C838AD
:101D100008000000203F2000000010080808C83814
:101D200008002038262120201800000000FE0202B2
:101D300002000000007F40404000000C30C0000066
:101D40000000000000010638C00000020202FE0090
:101D50000000004040407F0000000000040202023A
:101D6000040000000000000000000000000000006F
:101D7000000080808080808080800002020400005B
:101D80000000000000000000000000008080808053
:101D900000000019242222223F2008F80080800041
:101DA0000000003F112020110E0000000080808004
:101DB0000000000E1120202011000000008080880B
:101DC000F800000E112020103F200000808080804D
:101DD0000000001F222222221300008080F0888849
:101DE00088180020203F2020000000008080808094
:101DF0008000006B94949493600008F800808080C9
:101E00000000203F210000203F2000809898000023
:101E100000000020203F2020000000000080989853
:101E2000000000C08080807F000008F800008080F3
:101E30008000203F24022D302000000808F8000018
:101E400000000020203F20200000808080808080D3
:101E50008000203F20003F20003F80800080808065
:101E60000000203F210000203F2000008080808073
:101E70000000001F202020201F00808000808000A4
:101E8000000080FFA12020110E0000000080808053
:101E90008000000E112020A0FF80808080008080C4
:101EA000800020203F2120000100000080808080F1
:101EB00080000033242424241900008080E08080E6
:101EC00000000000001F2020000080800000008033
:101ED0008000001F202020103F2080808000008094
:101EE000808000010E3008060100808000800080A4
:101EF00080800F300C030C300F0000808000808049
:101F000080000020312E0E31200080808000008073
:101F1000808080818E701806010000808080808023
:101F200080000021302C2221300000000000807C45
:101F3000020200000000003F404000000000FF00DF
:101F4000000000000000FF0000000002027C800092
:101F500000000040403F00000000000601010202B6
:101F60000404000000000000000000008C1F0008B6
:101F700000000020440000006C010008D01F000891
:101F8000440000204C070000880100080000000009
:101F9000000000000000000000A24A040000000051
:101FA0000000000001020304060708090100000008
:101FB00000010203040102030406070809020406E3
:101FC0000800000000000000000000000000000009
:0400000508000131BD
:00000001FF
